{"abi":[{"type":"function","name":"balance","inputs":[],"outputs":[{"name":"","type":"uint256","internalType":"uint256"}],"stateMutability":"view"},{"type":"function","name":"deposit","inputs":[],"outputs":[],"stateMutability":"payable"},{"type":"function","name":"withdraw","inputs":[{"name":"amount","type":"uint256","internalType":"uint256"}],"outputs":[],"stateMutability":"nonpayable"},{"type":"function","name":"withdrawTest","inputs":[{"name":"amount","type":"uint256","internalType":"uint256"}],"outputs":[],"stateMutability":"nonpayable"}],"bytecode":{"object":"0x60806040526001805460ff191690553480156018575f5ffd5b5061039e806100265f395ff3fe60806040526004361061003e575f3560e01c80632e1a7d4d14610042578063b4a7819f14610063578063b69ef8a814610082578063d0e30db0146100a8575b5f5ffd5b34801561004d575f5ffd5b5061006161005c366004610311565b6100b0565b005b34801561006e575f5ffd5b5061006161007d366004610311565b61020c565b34801561008d575f5ffd5b506100965f5481565b60405190815260200160405180910390f35b6100616102fa565b60015460ff16156101085760405162461bcd60e51b815260206004820152601f60248201527f5265656e7472616e637947756172643a207265656e7472616e742063616c6c0060448201526064015b60405180910390fd5b6001805460ff1916811790555f5481111561015c5760405162461bcd60e51b8152602060048201526014602482015273496e73756666696369656e742062616c616e636560601b60448201526064016100ff565b6040515f9033906207a12090849084818181858888f193505050503d805f81146101a1576040519150601f19603f3d011682016040523d82523d5f602084013e6101a6565b606091505b50509050806101e95760405162461bcd60e51b815260206004820152600f60248201526e151c985b9cd9995c8819985a5b1959608a1b60448201526064016100ff565b815f5f8282546101f9919061033c565b90915550506001805460ff191690555050565b5f548111156102545760405162461bcd60e51b8152602060048201526014602482015273496e73756666696369656e742062616c616e636560601b60448201526064016100ff565b6040515f9033906207a12090849084818181858888f193505050503d805f8114610299576040519150601f19603f3d011682016040523d82523d5f602084013e61029e565b606091505b50509050806102e15760405162461bcd60e51b815260206004820152600f60248201526e151c985b9cd9995c8819985a5b1959608a1b60448201526064016100ff565b815f5f8282546102f1919061033c565b90915550505050565b345f5f82825461030a9190610355565b9091555050565b5f60208284031215610321575f5ffd5b5035919050565b634e487b7160e01b5f52601160045260245ffd5b8181038181111561034f5761034f610328565b92915050565b8082018082111561034f5761034f61032856fea2646970667358221220259f253c1ba46640794148aa89227ebffbf61e6fce669033e1dc0066d59820ad64736f6c634300081c0033","linkReferences":{}},"methodIdentifiers":{"balance()":"b69ef8a8","deposit()":"d0e30db0","withdraw(uint256)":"2e1a7d4d","withdrawTest(uint256)":"b4a7819f"},"id":24}